{
  "contractName": "Date",
  "abi": [
    {
      "inputs": [],
      "stateMutability": "nonpayable",
      "type": "constructor"
    },
    {
      "anonymous": false,
      "inputs": [
        {
          "indexed": true,
          "internalType": "address",
          "name": "owner",
          "type": "address"
        },
        {
          "indexed": true,
          "internalType": "address",
          "name": "approved",
          "type": "address"
        },
        {
          "indexed": true,
          "internalType": "uint256",
          "name": "tokenId",
          "type": "uint256"
        }
      ],
      "name": "Approval",
      "type": "event"
    },
    {
      "anonymous": false,
      "inputs": [
        {
          "indexed": true,
          "internalType": "address",
          "name": "owner",
          "type": "address"
        },
        {
          "indexed": true,
          "internalType": "address",
          "name": "operator",
          "type": "address"
        },
        {
          "indexed": false,
          "internalType": "bool",
          "name": "approved",
          "type": "bool"
        }
      ],
      "name": "ApprovalForAll",
      "type": "event"
    },
    {
      "anonymous": false,
      "inputs": [
        {
          "indexed": true,
          "internalType": "address",
          "name": "previousOwner",
          "type": "address"
        },
        {
          "indexed": true,
          "internalType": "address",
          "name": "newOwner",
          "type": "address"
        }
      ],
      "name": "OwnershipTransferred",
      "type": "event"
    },
    {
      "anonymous": false,
      "inputs": [
        {
          "indexed": true,
          "internalType": "address",
          "name": "from",
          "type": "address"
        },
        {
          "indexed": true,
          "internalType": "address",
          "name": "to",
          "type": "address"
        },
        {
          "indexed": true,
          "internalType": "uint256",
          "name": "tokenId",
          "type": "uint256"
        }
      ],
      "name": "Transfer",
      "type": "event"
    },
    {
      "inputs": [
        {
          "internalType": "address",
          "name": "to",
          "type": "address"
        },
        {
          "internalType": "uint256",
          "name": "tokenId",
          "type": "uint256"
        }
      ],
      "name": "approve",
      "outputs": [],
      "stateMutability": "nonpayable",
      "type": "function"
    },
    {
      "inputs": [
        {
          "internalType": "address",
          "name": "owner",
          "type": "address"
        }
      ],
      "name": "balanceOf",
      "outputs": [
        {
          "internalType": "uint256",
          "name": "",
          "type": "uint256"
        }
      ],
      "stateMutability": "view",
      "type": "function"
    },
    {
      "inputs": [
        {
          "internalType": "uint256",
          "name": "tokenId",
          "type": "uint256"
        }
      ],
      "name": "getApproved",
      "outputs": [
        {
          "internalType": "address",
          "name": "",
          "type": "address"
        }
      ],
      "stateMutability": "view",
      "type": "function"
    },
    {
      "inputs": [
        {
          "internalType": "address",
          "name": "owner",
          "type": "address"
        },
        {
          "internalType": "address",
          "name": "operator",
          "type": "address"
        }
      ],
      "name": "isApprovedForAll",
      "outputs": [
        {
          "internalType": "bool",
          "name": "",
          "type": "bool"
        }
      ],
      "stateMutability": "view",
      "type": "function"
    },
    {
      "inputs": [],
      "name": "name",
      "outputs": [
        {
          "internalType": "string",
          "name": "",
          "type": "string"
        }
      ],
      "stateMutability": "view",
      "type": "function"
    },
    {
      "inputs": [],
      "name": "owner",
      "outputs": [
        {
          "internalType": "address",
          "name": "",
          "type": "address"
        }
      ],
      "stateMutability": "view",
      "type": "function"
    },
    {
      "inputs": [],
      "name": "renounceOwnership",
      "outputs": [],
      "stateMutability": "nonpayable",
      "type": "function"
    },
    {
      "inputs": [
        {
          "internalType": "address",
          "name": "from",
          "type": "address"
        },
        {
          "internalType": "address",
          "name": "to",
          "type": "address"
        },
        {
          "internalType": "uint256",
          "name": "tokenId",
          "type": "uint256"
        }
      ],
      "name": "safeTransferFrom",
      "outputs": [],
      "stateMutability": "nonpayable",
      "type": "function"
    },
    {
      "inputs": [
        {
          "internalType": "address",
          "name": "from",
          "type": "address"
        },
        {
          "internalType": "address",
          "name": "to",
          "type": "address"
        },
        {
          "internalType": "uint256",
          "name": "tokenId",
          "type": "uint256"
        },
        {
          "internalType": "bytes",
          "name": "_data",
          "type": "bytes"
        }
      ],
      "name": "safeTransferFrom",
      "outputs": [],
      "stateMutability": "nonpayable",
      "type": "function"
    },
    {
      "inputs": [
        {
          "internalType": "address",
          "name": "operator",
          "type": "address"
        },
        {
          "internalType": "bool",
          "name": "approved",
          "type": "bool"
        }
      ],
      "name": "setApprovalForAll",
      "outputs": [],
      "stateMutability": "nonpayable",
      "type": "function"
    },
    {
      "inputs": [
        {
          "internalType": "bytes4",
          "name": "interfaceId",
          "type": "bytes4"
        }
      ],
      "name": "supportsInterface",
      "outputs": [
        {
          "internalType": "bool",
          "name": "",
          "type": "bool"
        }
      ],
      "stateMutability": "view",
      "type": "function"
    },
    {
      "inputs": [],
      "name": "symbol",
      "outputs": [
        {
          "internalType": "string",
          "name": "",
          "type": "string"
        }
      ],
      "stateMutability": "view",
      "type": "function"
    },
    {
      "inputs": [
        {
          "internalType": "uint256",
          "name": "index",
          "type": "uint256"
        }
      ],
      "name": "tokenByIndex",
      "outputs": [
        {
          "internalType": "uint256",
          "name": "",
          "type": "uint256"
        }
      ],
      "stateMutability": "view",
      "type": "function"
    },
    {
      "inputs": [
        {
          "internalType": "address",
          "name": "owner",
          "type": "address"
        },
        {
          "internalType": "uint256",
          "name": "index",
          "type": "uint256"
        }
      ],
      "name": "tokenOfOwnerByIndex",
      "outputs": [
        {
          "internalType": "uint256",
          "name": "",
          "type": "uint256"
        }
      ],
      "stateMutability": "view",
      "type": "function"
    },
    {
      "inputs": [
        {
          "internalType": "uint256",
          "name": "tokenId",
          "type": "uint256"
        }
      ],
      "name": "tokenURI",
      "outputs": [
        {
          "internalType": "string",
          "name": "",
          "type": "string"
        }
      ],
      "stateMutability": "view",
      "type": "function"
    },
    {
      "inputs": [],
      "name": "totalSupply",
      "outputs": [
        {
          "internalType": "uint256",
          "name": "",
          "type": "uint256"
        }
      ],
      "stateMutability": "view",
      "type": "function"
    },
    {
      "inputs": [
        {
          "internalType": "address",
          "name": "from",
          "type": "address"
        },
        {
          "internalType": "address",
          "name": "to",
          "type": "address"
        },
        {
          "internalType": "uint256",
          "name": "tokenId",
          "type": "uint256"
        }
      ],
      "name": "transferFrom",
      "outputs": [],
      "stateMutability": "nonpayable",
      "type": "function"
    },
    {
      "inputs": [
        {
          "internalType": "address",
          "name": "newOwner",
          "type": "address"
        }
      ],
      "name": "transferOwnership",
      "outputs": [],
      "stateMutability": "nonpayable",
      "type": "function"
    },
    {
      "inputs": [
        {
          "internalType": "string",
          "name": "newBaseURI",
          "type": "string"
        }
      ],
      "name": "setBaseURI",
      "outputs": [],
      "stateMutability": "nonpayable",
      "type": "function"
    },
    {
      "inputs": [],
      "name": "baseURI",
      "outputs": [
        {
          "internalType": "string",
          "name": "",
          "type": "string"
        }
      ],
      "stateMutability": "view",
      "type": "function"
    },
    {
      "inputs": [
        {
          "internalType": "uint16",
          "name": "year",
          "type": "uint16"
        },
        {
          "internalType": "uint8",
          "name": "month",
          "type": "uint8"
        },
        {
          "internalType": "uint8",
          "name": "day",
          "type": "uint8"
        },
        {
          "internalType": "string",
          "name": "title",
          "type": "string"
        }
      ],
      "name": "createNFT",
      "outputs": [],
      "stateMutability": "payable",
      "type": "function"
    },
    {
      "inputs": [
        {
          "internalType": "uint16",
          "name": "year",
          "type": "uint16"
        },
        {
          "internalType": "uint8",
          "name": "month",
          "type": "uint8"
        },
        {
          "internalType": "uint8",
          "name": "day",
          "type": "uint8"
        }
      ],
      "name": "ownerOf",
      "outputs": [
        {
          "internalType": "address",
          "name": "",
          "type": "address"
        }
      ],
      "stateMutability": "view",
      "type": "function"
    },
    {
      "inputs": [
        {
          "internalType": "uint256",
          "name": "tokenId",
          "type": "uint256"
        }
      ],
      "name": "ownerOf",
      "outputs": [
        {
          "internalType": "address",
          "name": "",
          "type": "address"
        }
      ],
      "stateMutability": "view",
      "type": "function"
    },
    {
      "inputs": [
        {
          "internalType": "uint256",
          "name": "tokenId",
          "type": "uint256"
        }
      ],
      "name": "readTokenMetaData",
      "outputs": [
        {
          "internalType": "uint16",
          "name": "year",
          "type": "uint16"
        },
        {
          "internalType": "uint8",
          "name": "month",
          "type": "uint8"
        },
        {
          "internalType": "uint8",
          "name": "day",
          "type": "uint8"
        },
        {
          "internalType": "uint8",
          "name": "color",
          "type": "uint8"
        },
        {
          "internalType": "string",
          "name": "title",
          "type": "string"
        }
      ],
      "stateMutability": "view",
      "type": "function"
    },
    {
      "inputs": [
        {
          "internalType": "uint256",
          "name": "tokenId",
          "type": "uint256"
        }
      ],
      "name": "tokenIdToTitle",
      "outputs": [
        {
          "internalType": "string",
          "name": "",
          "type": "string"
        }
      ],
      "stateMutability": "view",
      "type": "function"
    },
    {
      "inputs": [
        {
          "internalType": "uint16",
          "name": "year",
          "type": "uint16"
        },
        {
          "internalType": "uint8",
          "name": "month",
          "type": "uint8"
        },
        {
          "internalType": "uint8",
          "name": "day",
          "type": "uint8"
        }
      ],
      "name": "tokenDateToTitle",
      "outputs": [
        {
          "internalType": "string",
          "name": "",
          "type": "string"
        }
      ],
      "stateMutability": "view",
      "type": "function"
    },
    {
      "inputs": [
        {
          "internalType": "uint16",
          "name": "year",
          "type": "uint16"
        },
        {
          "internalType": "uint8",
          "name": "month",
          "type": "uint8"
        },
        {
          "internalType": "uint8",
          "name": "day",
          "type": "uint8"
        },
        {
          "internalType": "string",
          "name": "title",
          "type": "string"
        }
      ],
      "name": "changeTitleOfTokenByDate",
      "outputs": [],
      "stateMutability": "nonpayable",
      "type": "function"
    },
    {
      "inputs": [
        {
          "internalType": "uint256",
          "name": "tokenId",
          "type": "uint256"
        },
        {
          "internalType": "string",
          "name": "title",
          "type": "string"
        }
      ],
      "name": "changeTitleOfTokenById",
      "outputs": [],
      "stateMutability": "nonpayable",
      "type": "function"
    },
    {
      "inputs": [
        {
          "internalType": "uint16",
          "name": "year",
          "type": "uint16"
        }
      ],
      "name": "isLeapYear",
      "outputs": [
        {
          "internalType": "bool",
          "name": "",
          "type": "bool"
        }
      ],
      "stateMutability": "pure",
      "type": "function"
    },
    {
      "inputs": [
        {
          "internalType": "uint8",
          "name": "month",
          "type": "uint8"
        },
        {
          "internalType": "uint16",
          "name": "year",
          "type": "uint16"
        }
      ],
      "name": "numDaysInMonth",
      "outputs": [
        {
          "internalType": "uint8",
          "name": "",
          "type": "uint8"
        }
      ],
      "stateMutability": "pure",
      "type": "function"
    },
    {
      "inputs": [
        {
          "internalType": "uint256",
          "name": "timestamp",
          "type": "uint256"
        }
      ],
      "name": "timestampToDate",
      "outputs": [
        {
          "internalType": "uint16",
          "name": "year",
          "type": "uint16"
        },
        {
          "internalType": "uint8",
          "name": "month",
          "type": "uint8"
        },
        {
          "internalType": "uint8",
          "name": "day",
          "type": "uint8"
        }
      ],
      "stateMutability": "pure",
      "type": "function"
    }
  ],
  "bytecode": "0x60806040523480156200001157600080fd5b506040518060400160405280600481526020017f44617465000000000000000000000000000000000000000000000000000000008152506040518060400160405280600481526020017f44415445000000000000000000000000000000000000000000000000000000008152506000620000906200048e60201b60201c565b600080546001600160a01b0319166001600160a01b0383169081178255604051929350917f8be0079c531659141344cd1fd0a4f28419497f9722a3daafe3b4186f6b6457e0908290a350620001057f01ffc9a70000000000000000000000000000000000000000000000000000000062000492565b81516200011a9060079060208501906200122c565b508051620001309060089060208401906200122c565b506200015c7f80ac58cd0000000000000000000000000000000000000000000000000000000062000492565b620001877f5b5e139f0000000000000000000000000000000000000000000000000000000062000492565b620001b27f780e9d630000000000000000000000000000000000000000000000000000000062000492565b505060408051808201909152601d81527f68747470733a2f2f646174652e6b69652e636f6465732f746f6b656e2f0000006020820152620001f39062000564565b62000240600180600160046040518060400160405280600681526020017f4f524947494e00000000000000000000000000000000000000000000000000008152506200061060201b60201c565b600080806200024f42620006f5565b925092509250620002a083838360046040518060400160405280601081526020017f4461746520546f6b656e205374617274000000000000000000000000000000008152506200061060201b60201c565b620002ef6107df6007601e60066040518060400160405280600b81526020017f4554482047454e455349530000000000000000000000000000000000000000008152506200061060201b60201c565b6200031c6105ac6004600f6005604051806060016040528060268152602001620045ee6026913962000610565b62000349610645600b60056001604051806060016040528060288152602001620045a06028913962000610565b6200039861061c6004601760026040518060400160405280601381526020017f546f2062652c206f72206e6f7420746f206265000000000000000000000000008152506200061060201b60201c565b620003e76107b16007601460036040518060400160405280601681526020017f4f6e6520736d616c6c207374657020666f72206d616e000000000000000000008152506200061060201b60201c565b620004366107c26006600c60006040518060400160405280600381526020017f43424400000000000000000000000000000000000000000000000000000000008152506200061060201b60201c565b620004856107b36006601c60076040518060400160405280600f81526020017f456c6f6e277320426972746864617900000000000000000000000000000000008152506200061060201b60201c565b505050620012d8565b3390565b7fffffffff0000000000000000000000000000000000000000000000000000000080821614156200052457604080517f08c379a000000000000000000000000000000000000000000000000000000000815260206004820152601c60248201527f4552433136353a20696e76616c696420696e7465726661636520696400000000604482015290519081900360640190fd5b7fffffffff00000000000000000000000000000000000000000000000000000000166000908152600160208190526040909120805460ff19169091179055565b6200056e6200048e565b6001600160a01b031662000581620007ad565b6001600160a01b031614620005f757604080517f08c379a000000000000000000000000000000000000000000000000000000000815260206004820181905260248201527f4f776e61626c653a2063616c6c6572206973206e6f7420746865206f776e6572604482015290519081900360640190fd5b80516200060c90600c9060208401906200122c565b5050565b60006200061f868686620007bc565b6040805160a08101825261ffff808a16825260ff808a1660208085019182528a83168587019081528a841660608701908152608087018b815260008a8152600b8552989098208751815495519351925187166401000000000260ff60201b1993881663010000000263ff0000001995909816620100000262ff0000199290991661ffff199097169690961716969096179190911693909317929092161782559251805194955091939092620006dc9260018501929101906200122c565b50620006ed91503390508262000817565b505050505050565b60008080620afa6c620151808504018162023ab18204905062023ab181028203600061016d62023ab083046105b484048403618eac850401030490506064810461016d8202600483040103820360006099600260058402010490506005600260998302010482036001019650600a811062000774576009810362000779565b806003015b975060028860ff1611156200079057600062000793565b60015b60ff16856101900284010198505050505050509193909250565b6000546001600160a01b031690565b60008160ff16600111158015620007e45750620007da838562000839565b60ff168260ff1611155b620007ee57600080fd5b60018260ff1660018560ff1603601f0260018761ffff16036101740201010390505b9392505050565b6200060c828260405180602001604052806000815250620009df60201b60201c565b60008260ff16600111158015620008545750600c8360ff1611155b620008c057604080517f08c379a000000000000000000000000000000000000000000000000000000000815260206004820152601e60248201527f6d6f6e7468206d757374206265206265747765656e203120616e642031320000604482015290519081900360640190fd5b8161ffff16600111156200093557604080517f08c379a000000000000000000000000000000000000000000000000000000000815260206004820152601e60248201527f79656172206d75737420626520626967676572206f7220657175616c20310000604482015290519081900360640190fd5b8260ff16600114806200094b57508260ff166003145b806200095a57508260ff166005145b806200096957508260ff166007145b806200097857508260ff166008145b806200098757508260ff16600a145b806200099657508260ff16600c145b15620009a55750601f620009d9565b8260ff1660021415620009d557620009bd8262000a56565b620009ca57601c620009cd565b601d5b9050620009d9565b50601e5b92915050565b620009eb838362000b02565b620009fa600084848462000c8a565b62000a51576040517f08c379a00000000000000000000000000000000000000000000000000000000081526004018080602001828103825260328152602001806200456e6032913960400191505060405180910390fd5b505050565b60008161ffff166001111562000acd57604080517f08c379a000000000000000000000000000000000000000000000000000000000815260206004820152601e60248201527f79656172206d75737420626520626967676572206f7220657175616c20310000604482015290519081900360640190fd5b6003821615801562000aea5750606461ffff83160661ffff166000145b8015620009d957505061019061ffff91821606161590565b6001600160a01b03821662000b7857604080517f08c379a000000000000000000000000000000000000000000000000000000000815260206004820181905260248201527f4552433732313a206d696e7420746f20746865207a65726f2061646472657373604482015290519081900360640190fd5b62000b838162000e62565b1562000bf057604080517f08c379a000000000000000000000000000000000000000000000000000000000815260206004820152601c60248201527f4552433732313a20746f6b656e20616c7265616479206d696e74656400000000604482015290519081900360640190fd5b62000bfe6000838362000a51565b6001600160a01b038216600090815260026020908152604090912062000c2f9183906200208f62000e7f821b17901c565b5062000c4d8183600362000e8d60201b6200209b179092919060201c565b5060405181906001600160a01b038416906000907fddf252ad1be2c89b69c2b068fc378daa952ba7f163c4a11628f55a4df523b3ef908290a45050565b600062000cab846001600160a01b031662000ea560201b620020b11760201c565b62000cb95750600162000e5a565b600062000df57f150b7a020000000000000000000000000000000000000000000000000000000062000cea6200048e565b88878760405160240180856001600160a01b03168152602001846001600160a01b0316815260200183815260200180602001828103825283818151815260200191508051906020019080838360005b8381101562000d5357818101518382015260200162000d39565b50505050905090810190601f16801562000d815780820380516001836020036101000a031916815260200191505b5095505050505050604051602081830303815290604052906001600160e01b0319166020820180516001600160e01b0383818316178352505050506040518060600160405280603281526020016200456e60329139876001600160a01b031662000eab60201b620020b7179092919060201c565b9050600081806020019051602081101562000e0f57600080fd5b50517fffffffff00000000000000000000000000000000000000000000000000000000167f150b7a020000000000000000000000000000000000000000000000000000000014925050505b949350505050565b6000620009d982600362000ebc60201b620020c61790919060201c565b600062000810838362000eca565b600062000e5a84846001600160a01b03851662000f19565b3b151590565b606062000e5a848460008562000fb4565b600062000810838362001150565b600062000ed8838362001150565b62000f1057508154600181810184556000848152602080822090930184905584548482528286019093526040902091909155620009d9565b506000620009d9565b60008281526001840160205260408120548062000f8057505060408051808201825283815260208082018481528654600181810189556000898152848120955160029093029095019182559151908201558654868452818801909252929091205562000810565b8285600001600183038154811062000f9457fe5b906000526020600020906002020160010181905550600091505062000810565b6060303183111562001012576040517f08c379a0000000000000000000000000000000000000000000000000000000008152600401808060200182810382526026815260200180620045c86026913960400191505060405180910390fd5b6200101d8562000ea5565b6200108957604080517f08c379a000000000000000000000000000000000000000000000000000000000815260206004820152601d60248201527f416464726573733a2063616c6c20746f206e6f6e2d636f6e7472616374000000604482015290519081900360640190fd5b600080866001600160a01b031685876040518082805190602001908083835b60208310620010c95780518252601f199092019160209182019101620010a8565b6001836020036101000a03801982511681845116808217855250505050505090500191505060006040518083038185875af1925050503d80600081146200112d576040519150601f19603f3d011682016040523d82523d6000602084013e62001132565b606091505b5090925090506200114582828662001168565b979650505050505050565b60009081526001919091016020526040902054151590565b606083156200117957508162000810565b8251156200118a5782518084602001fd5b816040517f08c379a00000000000000000000000000000000000000000000000000000000081526004018080602001828103825283818151815260200191508051906020019080838360005b83811015620011f0578181015183820152602001620011d6565b50505050905090810190601f1680156200121e5780820380516001836020036101000a031916815260200191505b509250505060405180910390fd5b828054600181600116156101000203166002900490600052602060002090601f016020900481019282620012645760008555620012af565b82601f106200127f57805160ff1916838001178555620012af565b82800160010185558215620012af579182015b82811115620012af57825182559160200191906001019062001292565b50620012bd929150620012c1565b5090565b5b80821115620012bd5760008155600101620012c2565b61328680620012e86000396000f3fe6080604052600436106101d85760003560e01c80636c0360eb11610102578063a4952ec011610095578063d125339d11610064578063d125339d14610a0e578063de5101af14610ad9578063e985e9c514610b2a578063f2fde38b14610b65576101d8565b8063a4952ec0146108bb578063a6f0e577146108e5578063b88d4fde14610913578063c87b56dd146109e4576101d8565b80638063191d116100d15780638063191d146107875780638da5cb5b1461085657806395d89b411461086b578063a22cb46514610880576101d8565b80636c0360eb146106eb57806370a0823114610700578063715018a614610733578063744306d114610748576101d8565b80632f745c591161017a5780634f6ccce7116101495780634f6ccce7146105995780635333f08f146105c357806355f804b3146106105780636352211e146106c1576101d8565b80632f745c591461045257806339eac6ab1461048b57806342842e0e146104ca57806343700a941461050d576101d8565b8063095ea7b3116101b6578063095ea7b3146102f557806318160ddd1461033057806323b872dd146103575780632e993fa01461039a576101d8565b806301ffc9a7146101dd57806306fdde0314610225578063081812fc146102af575b600080fd5b3480156101e957600080fd5b506102116004803603602081101561020057600080fd5b50356001600160e01b031916610b98565b604080519115158252519081900360200190f35b34801561023157600080fd5b5061023a610bbb565b6040805160208082528351818301528351919283929083019185019080838360005b8381101561027457818101518382015260200161025c565b50505050905090810190601f1680156102a15780820380516001836020036101000a031916815260200191505b509250505060405180910390f35b3480156102bb57600080fd5b506102d9600480360360208110156102d257600080fd5b5035610c51565b604080516001600160a01b039092168252519081900360200190f35b34801561030157600080fd5b5061032e6004803603604081101561031857600080fd5b506001600160a01b038135169060200135610cb3565b005b34801561033c57600080fd5b50610345610d8e565b60408051918252519081900360200190f35b34801561036357600080fd5b5061032e6004803603606081101561037a57600080fd5b506001600160a01b03813581169160208101359091169060400135610d9f565b3480156103a657600080fd5b5061032e600480360360408110156103bd57600080fd5b81359190810190604081016020820135600160201b8111156103de57600080fd5b8201836020820111156103f057600080fd5b803590602001918460018302840111600160201b8311171561041157600080fd5b91908080601f016020809104026020016040519081016040528093929190818152602001838380828437600092019190915250929550610df6945050505050565b34801561045e57600080fd5b506103456004803603604081101561047557600080fd5b506001600160a01b038135169060200135610eb7565b34801561049757600080fd5b506102d9600480360360608110156104ae57600080fd5b5061ffff8135169060ff60208201358116916040013516610ee2565b3480156104d657600080fd5b5061032e600480360360608110156104ed57600080fd5b506001600160a01b03813581169160208101359091169060400135610f01565b61032e6004803603608081101561052357600080fd5b61ffff8235169160ff602082013581169260408301359091169190810190608081016060820135600160201b81111561055b57600080fd5b82018360208201111561056d57600080fd5b803590602001918460018302840111600160201b8311171561058e57600080fd5b509092509050610f1c565b3480156105a557600080fd5b50610345600480360360208110156105bc57600080fd5b503561119a565b3480156105cf57600080fd5b506105fa600480360360408110156105e657600080fd5b50803560ff16906020013561ffff166111b0565b6040805160ff9092168252519081900360200190f35b34801561061c57600080fd5b5061032e6004803603602081101561063357600080fd5b810190602081018135600160201b81111561064d57600080fd5b82018360208201111561065f57600080fd5b803590602001918460018302840111600160201b8311171561068057600080fd5b91908080601f01602080910402602001604051908101604052809392919081815260200183838082843760009201919091525092955061130f945050505050565b3480156106cd57600080fd5b506102d9600480360360208110156106e457600080fd5b503561139a565b3480156106f757600080fd5b5061023a6113c2565b34801561070c57600080fd5b506103456004803603602081101561072357600080fd5b50356001600160a01b0316611423565b34801561073f57600080fd5b5061032e61148b565b34801561075457600080fd5b5061023a6004803603606081101561076b57600080fd5b5061ffff8135169060ff60208201358116916040013516611549565b34801561079357600080fd5b5061032e600480360360808110156107aa57600080fd5b61ffff8235169160ff602082013581169260408301359091169190810190608081016060820135600160201b8111156107e257600080fd5b8201836020820111156107f457600080fd5b803590602001918460018302840111600160201b8311171561081557600080fd5b91908080601f0160208091040260200160405190810160405280939291908181526020018383808284376000920191909152509295506116a9945050505050565b34801561086257600080fd5b506102d9611715565b34801561087757600080fd5b5061023a611724565b34801561088c57600080fd5b5061032e600480360360408110156108a357600080fd5b506001600160a01b0381351690602001351515611785565b3480156108c757600080fd5b5061023a600480360360208110156108de57600080fd5b503561188a565b3480156108f157600080fd5b506102116004803603602081101561090857600080fd5b503561ffff166119cb565b34801561091f57600080fd5b5061032e6004803603608081101561093657600080fd5b6001600160a01b03823581169260208101359091169160408201359190810190608081016060820135600160201b81111561097057600080fd5b82018360208201111561098257600080fd5b803590602001918460018302840111600160201b831117156109a357600080fd5b91908080601f016020809104026020016040519081016040528093929190818152602001838380828437600092019190915250929550611a5a945050505050565b3480156109f057600080fd5b5061023a60048036036020811015610a0757600080fd5b5035611ab2565b348015610a1a57600080fd5b50610a3860048036036020811015610a3157600080fd5b5035611d33565b604051808661ffff1681526020018560ff1681526020018460ff1681526020018360ff16815260200180602001828103825283818151815260200191508051906020019080838360005b83811015610a9a578181015183820152602001610a82565b50505050905090810190601f168015610ac75780820380516001836020036101000a031916815260200191505b50965050505050505060405180910390f35b348015610ae557600080fd5b50610b0360048036036020811015610afc57600080fd5b5035611e99565b6040805161ffff909416845260ff9283166020850152911682820152519081900360600190f35b348015610b3657600080fd5b5061021160048036036040811015610b4d57600080fd5b506001600160a01b0381358116916020013516611f4d565b348015610b7157600080fd5b5061032e60048036036020811015610b8857600080fd5b50356001600160a01b0316611f7b565b6001600160e01b0319811660009081526001602052604090205460ff165b919050565b60078054604080516020601f6002600019610100600188161502019095169490940493840181900481028201810190925282815260609390929091830182828015610c475780601f10610c1c57610100808354040283529160200191610c47565b820191906000526020600020905b815481529060010190602001808311610c2a57829003601f168201915b5050505050905090565b6000610c5c826120d2565b610c975760405162461bcd60e51b815260040180806020018281038252602c815260200180613154602c913960400191505060405180910390fd5b506000908152600560205260409020546001600160a01b031690565b6000610cbe8261139a565b9050806001600160a01b0316836001600160a01b03161415610d115760405162461bcd60e51b81526004018080602001828103825260218152602001806131d86021913960400191505060405180910390fd5b806001600160a01b0316610d236120df565b6001600160a01b03161480610d445750610d4481610d3f6120df565b611f4d565b610d7f5760405162461bcd60e51b81526004018080602001828103825260388152602001806130a76038913960400191505060405180910390fd5b610d8983836120e3565b505050565b6000610d9a6003612151565b905090565b610db0610daa6120df565b8261215c565b610deb5760405162461bcd60e51b81526004018080602001828103825260318152602001806131f96031913960400191505060405180910390fd5b610d89838383612200565b610dff826120d2565b610e43576040805162461bcd60e51b815260206004820152601060248201526f1d1bdad95b881b9bdd081b5a5b9d195960821b604482015290519081900360640190fd5b33610e4d8361139a565b6001600160a01b031614610e925760405162461bcd60e51b8152600401808060200182810382526030815260200180612fa96030913960400191505060405180910390fd5b6000828152600b602090815260409091208251610d8992600190920191840190612ee5565b6001600160a01b0382166000908152600260205260408120610ed9908361234c565b90505b92915050565b6000610ef7610ef2858585612358565b61139a565b90505b9392505050565b610d8983838360405180602001604052806000815250611a5a565b34662386f26fc1000014610f77576040805162461bcd60e51b815260206004820152601f60248201527f636c61696d696e672061206461746520636f7374732031302066696e6e657900604482015290519081900360640190fd5b6000806000610f8542611e99565b9250925092508261ffff168861ffff161180610fb857508261ffff168861ffff16148015610fb857508160ff168760ff16115b80610feb57508261ffff168861ffff16148015610fda57508160ff168760ff16145b8015610feb57508060ff168660ff16115b156110275760405162461bcd60e51b815260040180806020018281038252602781526020018061322a6027913960400191505060405180910390fd5b600080620f42406110708b8b8b8b8b8080601f0160208091040260200160405190810160405280939291908181526020018383808284376000920191909152506123ae92505050565b8161107757fe5b0690506103e881101561108d5760079150611108565b6117708110156110a05760069150611108565b613e808110156110b35760059150611108565b620101d08110156110c75760049150611108565b620288708110156110db5760039150611108565b620595b08110156110ef5760029150611108565b620a29908110156111035760019150611108565b600091505b61114b8a8a8a858b8b8080601f01602080910402602001604051908101604052809392919081815260200183838082843760009201919091525061247592505050565b611153611715565b6040516001600160a01b039190911690600090662386f26fc100009082818181858883f1935050505015801561118d573d6000803e3d6000fd5b5050505050505050505050565b6000806111a8600384612553565b509392505050565b60008260ff166001111580156111ca5750600c8360ff1611155b61121b576040805162461bcd60e51b815260206004820152601e60248201527f6d6f6e7468206d757374206265206265747765656e203120616e642031320000604482015290519081900360640190fd5b8161ffff1660011115611275576040805162461bcd60e51b815260206004820152601e60248201527f79656172206d75737420626520626967676572206f7220657175616c20310000604482015290519081900360640190fd5b8260ff166001148061128a57508260ff166003145b8061129857508260ff166005145b806112a657508260ff166007145b806112b457508260ff166008145b806112c257508260ff16600a145b806112d057508260ff16600c145b156112dd5750601f610edc565b8260ff1660021415611307576112f2826119cb565b6112fd57601c611300565b601d5b9050610edc565b50601e610edc565b6113176120df565b6001600160a01b0316611328611715565b6001600160a01b031614611383576040805162461bcd60e51b815260206004820181905260248201527f4f776e61626c653a2063616c6c6572206973206e6f7420746865206f776e6572604482015290519081900360640190fd5b805161139690600c906020840190612ee5565b5050565b6000610edc82604051806060016040528060298152602001613109602991396003919061256f565b600c8054604080516020601f6002600019610100600188161502019095169490940493840181900481028201810190925282815260609390929091830182828015610c475780601f10610c1c57610100808354040283529160200191610c47565b60006001600160a01b03821661146a5760405162461bcd60e51b815260040180806020018281038252602a8152602001806130df602a913960400191505060405180910390fd5b6001600160a01b0382166000908152600260205260409020610edc90612151565b6114936120df565b6001600160a01b03166114a4611715565b6001600160a01b0316146114ff576040805162461bcd60e51b815260206004820181905260248201527f4f776e61626c653a2063616c6c6572206973206e6f7420746865206f776e6572604482015290519081900360640190fd5b600080546040516001600160a01b03909116907f8be0079c531659141344cd1fd0a4f28419497f9722a3daafe3b4186f6b6457e0908390a3600080546001600160a01b0319169055565b606061155e611559858585612358565b6120d2565b6115a2576040805162461bcd60e51b815260206004820152601060248201526f1d1bdad95b881b9bdd081b5a5b9d195960821b604482015290519081900360640190fd5b6000600b60006115b3878787612358565b81526020808201929092526040908101600020815160a081018352815461ffff8116825260ff62010000820481168387015263010000008204811683860152600160201b909104166060820152600180830180548551601f6002600019958416156101000295909501909216939093049081018790048702830187019095528482529194929360808601939192918301828280156116925780601f1061166757610100808354040283529160200191611692565b820191906000526020600020905b81548152906001019060200180831161167557829003601f168201915b505050919092525050506080015195945050505050565b6116b7611559858585612358565b6116fb576040805162461bcd60e51b815260206004820152601060248201526f1d1bdad95b881b9bdd081b5a5b9d195960821b604482015290519081900360640190fd5b61170f611709858585612358565b82610df6565b50505050565b6000546001600160a01b031690565b60088054604080516020601f6002600019610100600188161502019095169490940493840181900481028201810190925282815260609390929091830182828015610c475780601f10610c1c57610100808354040283529160200191610c47565b61178d6120df565b6001600160a01b0316826001600160a01b031614156117f3576040805162461bcd60e51b815260206004820152601960248201527f4552433732313a20617070726f766520746f2063616c6c657200000000000000604482015290519081900360640190fd5b80600660006118006120df565b6001600160a01b03908116825260208083019390935260409182016000908120918716808252919093529120805460ff1916921515929092179091556118446120df565b6001600160a01b03167f17307eab39ab6107e8899845ad3d59bd9653f200f220920489ca2b5937696c318360405180821515815260200191505060405180910390a35050565b6060611895826120d2565b6118d9576040805162461bcd60e51b815260206004820152601060248201526f1d1bdad95b881b9bdd081b5a5b9d195960821b604482015290519081900360640190fd5b6000828152600b60209081526040808320815160a081018352815461ffff8116825260ff62010000820481168387015263010000008204811683860152600160201b909104166060820152600180830180548551601f6002600019958416156101000295909501909216939093049081018790048702830187019095528482529194929360808601939192918301828280156119b65780601f1061198b576101008083540402835291602001916119b6565b820191906000526020600020905b81548152906001019060200180831161199957829003601f168201915b50505091909252505050608001519392505050565b60008161ffff1660011115611a27576040805162461bcd60e51b815260206004820152601e60248201527f79656172206d75737420626520626967676572206f7220657175616c20310000604482015290519081900360640190fd5b60038216158015611a435750606461ffff83160661ffff166000145b8015610edc57505061019061ffff91821606161590565b611a6b611a656120df565b8361215c565b611aa65760405162461bcd60e51b81526004018080602001828103825260318152602001806131f96031913960400191505060405180910390fd5b61170f8484848461257c565b6060611abd826120d2565b611af85760405162461bcd60e51b815260040180806020018281038252602f8152602001806131a9602f913960400191505060405180910390fd5b60008281526009602090815260408083208054825160026001831615610100026000190190921691909104601f810185900485028201850190935282815292909190830182828015611b8b5780601f10611b6057610100808354040283529160200191611b8b565b820191906000526020600020905b815481529060010190602001808311611b6e57829003601f168201915b505050505090506000611b9c6113c2565b9050805160001415611bb057509050610bb6565b815115611c715780826040516020018083805190602001908083835b60208310611beb5780518252601f199092019160209182019101611bcc565b51815160209384036101000a600019018019909216911617905285519190930192850191508083835b60208310611c335780518252601f199092019160209182019101611c14565b6001836020036101000a0380198251168184511680821785525050505050509050019250505060405160208183030381529060405292505050610bb6565b80611c7b856125ce565b6040516020018083805190602001908083835b60208310611cad5780518252601f199092019160209182019101611c8e565b51815160209384036101000a600019018019909216911617905285519190930192850191508083835b60208310611cf55780518252601f199092019160209182019101611cd6565b6001836020036101000a0380198251168184511680821785525050505050509050019250505060405160208183030381529060405292505050919050565b6000806000806060611d44866120d2565b611d88576040805162461bcd60e51b815260206004820152601060248201526f1d1bdad95b881b9bdd081b5a5b9d195960821b604482015290519081900360640190fd5b6000868152600b60209081526040808320815160a081018352815461ffff8116825260ff62010000820481168387015263010000008204811683860152600160201b909104166060820152600180830180548551601f600260001995841615610100029590950190921693909304908101879004870283018701909552848252919492936080860193919291830182828015611e655780601f10611e3a57610100808354040283529160200191611e65565b820191906000526020600020905b815481529060010190602001808311611e4857829003601f168201915b5050509190925250508151602083015160408401516060850151608090950151929c919b5099509297509550909350505050565b60008080620afa6c620151808504018162023ab18204905062023ab181028203600061016d62023ab083046105b484048403618eac850401030490506064810461016d8202600483040103820360006099600260058402010490506005600260998302010482036001019650600a8110611f165760098103611f1b565b806003015b975060028860ff161115611f30576000611f33565b60015b60ff16856101900284010198505050505050509193909250565b6001600160a01b03918216600090815260066020908152604080832093909416825291909152205460ff1690565b611f836120df565b6001600160a01b0316611f94611715565b6001600160a01b031614611fef576040805162461bcd60e51b815260206004820181905260248201527f4f776e61626c653a2063616c6c6572206973206e6f7420746865206f776e6572604482015290519081900360640190fd5b6001600160a01b0381166120345760405162461bcd60e51b815260040180806020018281038252602681526020018061300b6026913960400191505060405180910390fd5b600080546040516001600160a01b03808516939216917f8be0079c531659141344cd1fd0a4f28419497f9722a3daafe3b4186f6b6457e091a3600080546001600160a01b0319166001600160a01b0392909216919091179055565b6000610ed983836126a9565b6000610ef784846001600160a01b0385166126f3565b3b151590565b6060610ef7848460008561278a565b6000610ed983836128e6565b6000610edc6003836120c6565b3390565b600081815260056020526040902080546001600160a01b0319166001600160a01b03841690811790915581906121188261139a565b6001600160a01b03167f8c5be1e5ebec7d5bd14f71427d1e84f3dd0314c0f7b2291e5b200ac8c7c3b92560405160405180910390a45050565b6000610edc826128fe565b6000612167826120d2565b6121a25760405162461bcd60e51b815260040180806020018281038252602c81526020018061307b602c913960400191505060405180910390fd5b60006121ad8361139a565b9050806001600160a01b0316846001600160a01b031614806121e85750836001600160a01b03166121dd84610c51565b6001600160a01b0316145b806121f857506121f88185611f4d565b949350505050565b826001600160a01b03166122138261139a565b6001600160a01b0316146122585760405162461bcd60e51b81526004018080602001828103825260298152602001806131806029913960400191505060405180910390fd5b6001600160a01b03821661229d5760405162461bcd60e51b81526004018080602001828103825260248152602001806130316024913960400191505060405180910390fd5b6122a8838383610d89565b6122b36000826120e3565b6001600160a01b03831660009081526002602052604090206122d59082612902565b506001600160a01b03821660009081526002602052604090206122f8908261208f565b506123056003828461209b565b5080826001600160a01b0316846001600160a01b03167fddf252ad1be2c89b69c2b068fc378daa952ba7f163c4a11628f55a4df523b3ef60405160405180910390a4505050565b6000610ed9838361290e565b60008160ff1660011115801561237d575061237383856111b0565b60ff168260ff1611155b61238657600080fd5b60018260ff1660018560ff1603601f0260018761ffff16036101740201010390509392505050565b6000424486868686604051602001808781526020018681526020018561ffff1681526020018460ff1681526020018360ff16815260200180602001828103825283818151815260200191508051906020019080838360005b8381101561241e578181015183820152602001612406565b50505050905090810190601f16801561244b5780820380516001836020036101000a031916815260200191505b5060408051808303601f1901815291905280516020909101209d9c50505050505050505050505050565b6000612482868686612358565b6040805160a08101825261ffff808a16825260ff808a1660208085019182528a83168587019081528a841660608701908152608087018b815260008a8152600b855298909820875181549551935192518716600160201b0264ff000000001993881663010000000263ff0000001995909816620100000262ff0000199290991661ffff19909716969096171696909617919091169390931792909216178255925180519495509193909261253d926001850192910190612ee5565b5090505061254b3382612972565b505050505050565b6000808080612562868661298c565b9097909650945050505050565b6000610ef7848484612a07565b612587848484612200565b61259384848484612ad1565b61170f5760405162461bcd60e51b8152600401808060200182810382526032815260200180612fd96032913960400191505060405180910390fd5b6060816125f357506040805180820190915260018152600360fc1b6020820152610bb6565b8160005b811561260b57600101600a820491506125f7565b60008167ffffffffffffffff8111801561262457600080fd5b506040519080825280601f01601f19166020018201604052801561264f576020820181803683370190505b50859350905060001982015b83156126a057600a840660300160f81b8282806001900393508151811061267e57fe5b60200101906001600160f81b031916908160001a905350600a8404935061265b565b50949350505050565b60006126b583836128e6565b6126eb57508154600181810184556000848152602080822090930184905584548482528286019093526040902091909155610edc565b506000610edc565b600082815260018401602052604081205480612758575050604080518082018252838152602080820184815286546001818101895560008981528481209551600290930290950191825591519082015586548684528188019092529290912055610efa565b8285600001600183038154811061276b57fe5b9060005260206000209060020201600101819055506000915050610efa565b606030318311156127cc5760405162461bcd60e51b81526004018080602001828103825260268152602001806130556026913960400191505060405180910390fd5b6127d5856120b1565b612826576040805162461bcd60e51b815260206004820152601d60248201527f416464726573733a2063616c6c20746f206e6f6e2d636f6e7472616374000000604482015290519081900360640190fd5b600080866001600160a01b031685876040518082805190602001908083835b602083106128645780518252601f199092019160209182019101612845565b6001836020036101000a03801982511681845116808217855250505050505090500191505060006040518083038185875af1925050503d80600081146128c6576040519150601f19603f3d011682016040523d82523d6000602084013e6128cb565b606091505b50915091506128db828286612c39565b979650505050505050565b60009081526001919091016020526040902054151590565b5490565b6000610ed98383612c9f565b815460009082106129505760405162461bcd60e51b8152600401808060200182810382526022815260200180612f876022913960400191505060405180910390fd5b82600001828154811061295f57fe5b9060005260206000200154905092915050565b611396828260405180602001604052806000815250612d65565b8154600090819083106129d05760405162461bcd60e51b81526004018080602001828103825260228152602001806131326022913960400191505060405180910390fd5b60008460000184815481106129e157fe5b906000526020600020906002020190508060000154816001015492509250509250929050565b60008281526001840160205260408120548281612aa25760405162461bcd60e51b81526004018080602001828103825283818151815260200191508051906020019080838360005b83811015612a67578181015183820152602001612a4f565b50505050905090810190601f168015612a945780820380516001836020036101000a031916815260200191505b509250505060405180910390fd5b50846000016001820381548110612ab557fe5b9060005260206000209060020201600101549150509392505050565b6000612ae5846001600160a01b03166120b1565b612af1575060016121f8565b6000612bff630a85bd0160e11b612b066120df565b88878760405160240180856001600160a01b03168152602001846001600160a01b0316815260200183815260200180602001828103825283818151815260200191508051906020019080838360005b83811015612b6d578181015183820152602001612b55565b50505050905090810190601f168015612b9a5780820380516001836020036101000a031916815260200191505b5095505050505050604051602081830303815290604052906001600160e01b0319166020820180516001600160e01b038381831617835250505050604051806060016040528060328152602001612fd9603291396001600160a01b03881691906120b7565b90506000818060200190516020811015612c1857600080fd5b50516001600160e01b031916630a85bd0160e11b1492505050949350505050565b60608315612c48575081610efa565b825115612c585782518084602001fd5b60405162461bcd60e51b8152602060048201818152845160248401528451859391928392604401919085019080838360008315612a67578181015183820152602001612a4f565b60008181526001830160205260408120548015612d5b5783546000198083019190810190600090879083908110612cd257fe5b9060005260206000200154905080876000018481548110612cef57fe5b600091825260208083209091019290925582815260018981019092526040902090840190558654879080612d1f57fe5b60019003818190600052602060002001600090559055866001016000878152602001908152602001600020600090556001945050505050610edc565b6000915050610edc565b612d6f8383612db7565b612d7c6000848484612ad1565b610d895760405162461bcd60e51b8152600401808060200182810382526032815260200180612fd96032913960400191505060405180910390fd5b6001600160a01b038216612e12576040805162461bcd60e51b815260206004820181905260248201527f4552433732313a206d696e7420746f20746865207a65726f2061646472657373604482015290519081900360640190fd5b612e1b816120d2565b15612e6d576040805162461bcd60e51b815260206004820152601c60248201527f4552433732313a20746f6b656e20616c7265616479206d696e74656400000000604482015290519081900360640190fd5b612e7960008383610d89565b6001600160a01b0382166000908152600260205260409020612e9b908261208f565b50612ea86003828461209b565b5060405181906001600160a01b038416906000907fddf252ad1be2c89b69c2b068fc378daa952ba7f163c4a11628f55a4df523b3ef908290a45050565b828054600181600116156101000203166002900490600052602060002090601f016020900481019282612f1b5760008555612f61565b82601f10612f3457805160ff1916838001178555612f61565b82800160010185558215612f61579182015b82811115612f61578251825591602001919060010190612f46565b50612f6d929150612f71565b5090565b5b80821115612f6d5760008155600101612f7256fe456e756d657261626c655365743a20696e646578206f7574206f6620626f756e64736f6e6c7920746865206f776e6572206f66207468697320646174652063616e206368616e676520697473207469746c654552433732313a207472616e7366657220746f206e6f6e20455243373231526563656976657220696d706c656d656e7465724f776e61626c653a206e6577206f776e657220697320746865207a65726f20616464726573734552433732313a207472616e7366657220746f20746865207a65726f2061646472657373416464726573733a20696e73756666696369656e742062616c616e636520666f722063616c6c4552433732313a206f70657261746f7220717565727920666f72206e6f6e6578697374656e7420746f6b656e4552433732313a20617070726f76652063616c6c6572206973206e6f74206f776e6572206e6f7220617070726f76656420666f7220616c6c4552433732313a2062616c616e636520717565727920666f7220746865207a65726f20616464726573734552433732313a206f776e657220717565727920666f72206e6f6e6578697374656e7420746f6b656e456e756d657261626c654d61703a20696e646578206f7574206f6620626f756e64734552433732313a20617070726f76656420717565727920666f72206e6f6e6578697374656e7420746f6b656e4552433732313a207472616e73666572206f6620746f6b656e2074686174206973206e6f74206f776e4552433732314d657461646174613a2055524920717565727920666f72206e6f6e6578697374656e7420746f6b656e4552433732313a20617070726f76616c20746f2063757272656e74206f776e65724552433732313a207472616e736665722063616c6c6572206973206e6f74206f776e6572206e6f7220617070726f7665646120646174652066726f6d20746865206675747572652063616e277420626520636c61696d6564a26469706673582212208a0993696c2068fd690f6b2cf7dd15b134882ef27212b8d5d7ebb2e3119747d364736f6c634300070600334552433732313a207472616e7366657220746f206e6f6e20455243373231526563656976657220696d706c656d656e74657252656d656d6265722c2072656d656d6265722c2074686520357468206f66204e6f76656d6265722e416464726573733a20696e73756666696369656e742062616c616e636520666f722063616c6c417274206973206e657665722066696e69736865642c206f6e6c79206162616e646f6e65642e",
  "immutableReferences": {},
  "source": "// SPDX-License-Identifier: MIT\r\npragma solidity >=0.6.0 <0.8.0;\r\n//+-This is an N.F.T. that is Minted using a Date, Title and Color.\r\nimport \"@openzeppelin/contracts/access/Ownable.sol\";\r\nimport \"@openzeppelin/contracts/token/ERC721/ERC721.sol\";\r\n\r\ncontract Date is Ownable, ERC721 {\r\n\r\n    //+-Metadata that will be used to Identify the N.F.T. as unique.\r\n    struct Metadata {\r\n        uint16 year;\r\n        uint8 month;\r\n        uint8 day;\r\n        uint8 color;\r\n        string title;\r\n    }\r\n\r\n    mapping(uint256 => Metadata) id_to_date;\r\n\r\n    string private _currentBaseURI;\r\n\r\n    constructor() ERC721(\"Date\", \"DATE\") {\r\n        setBaseURI(\"https://date.kie.codes/token/\");\r\n\r\n        mint(1, 1, 1, 4, \"ORIGIN\");\r\n        (uint16 now_year, uint8 now_month, uint8 now_day) = timestampToDate(block.timestamp);\r\n        mint(now_year, now_month, now_day, 4, \"Date Token Start\");\r\n        mint(2015, 7, 30, 6, \"ETH GENESIS\");\r\n        mint(1452, 4, 15, 5, \"Art is never finished, only abandoned.\");\r\n        mint(1605, 11, 5, 1, \"Remember, remember, the 5th of November.\");\r\n        mint(1564, 4, 23, 2, \"To be, or not to be\");\r\n        mint(1969, 7, 20, 3, \"One small step for man\");\r\n        mint(1986, 6, 12, 0, \"CBD\");\r\n        mint(1971, 6, 28, 7, \"Elon's Birthday\");\r\n    }\r\n\r\n    function setBaseURI(string memory newBaseURI) public onlyOwner {\r\n        _currentBaseURI = newBaseURI;\r\n    }\r\n\r\n    function /**_*/baseURI() public view virtual override returns (string memory) {\r\n        return _currentBaseURI;\r\n    }\r\n\r\n    //+-The Mint Function Takes a Year, Month, Day, a Color and a Title to create a new N.F.T..+-It is \"Internal\" and Normal Users can't call it.\r\n    function mint(uint16 year, uint8 month, uint8 day, uint8 color, string memory title) internal {\r\n        uint256 tokenId = id(year, month, day);\r\n\r\n        id_to_date[tokenId] = Metadata(year, month, day, color, title);\r\n        _safeMint(msg.sender, tokenId);\r\n    }\r\n\r\n    /**+-The CreateNFT Function uses the Mint Function Taking all the Data that the Users give to it except fot the Color that is choosen randomly to create a new N.F.T..\r\n    +-It is \"External\" so Users can call it and \"Payable\" because users have to Pay a fee to create a new N.F.T..*/\r\n    function createNFT(uint16 year, uint8 month, uint8 day, string calldata title) external payable {\r\n        require(msg.value == 0.01 ether, \"claiming a date costs 10 finney\");\r\n\r\n        (uint16 now_year, uint8 now_month, uint8 now_day) = timestampToDate(block.timestamp);\r\n        if ((year > now_year) ||\r\n            (year == now_year && month > now_month) ||\r\n            (year == now_year && month == now_month && day > now_day)) {\r\n            revert(\"a date from the future can't be claimed\");\r\n        }\r\n\r\n        uint8 color;\r\n        uint256 randomNum = pseudoRNG(year, month, day, title) % 1000000;\r\n        if (randomNum < 1000) {\r\n            color = 7;\r\n        } else if (randomNum < 6000) {\r\n            color = 6;\r\n        } else if (randomNum < 16000) {\r\n            color = 5;\r\n        } else if (randomNum < 66000) {\r\n            color = 4;\r\n        } else if (randomNum < 166000) {\r\n            color = 3;\r\n        } else if (randomNum < 366000) {\r\n            color = 2;\r\n        } else if (randomNum < 666000) {\r\n            color = 1;\r\n        } else {\r\n            color = 0;\r\n        }\r\n\r\n        mint(year, month, day, color, title);\r\n        payable(owner()).transfer(0.01 ether);\r\n    }\r\n\r\n    function ownerOf(uint16 year, uint8 month, uint8 day) public view returns(address) {\r\n        return ownerOf(id(year, month, day));\r\n    }\r\n\r\n    function id(uint16 year, uint8 month, uint8 day) pure internal returns(uint256) {\r\n        require(1 <= day && day <= numDaysInMonth(month, year));\r\n        return (uint256(year)-1)*372 + (uint256(month)-1)*31 + uint256(day)-1;\r\n    }\r\n\r\n    function readTokenMetaData(uint256 tokenId) external view returns (uint16 year, uint8 month, uint8 day, uint8 color, string memory title) {\r\n        require(_exists(tokenId), \"token not minted\");\r\n        Metadata memory date = id_to_date[tokenId];\r\n        year = date.year;\r\n        month = date.month;\r\n        day = date.day;\r\n        color = date.color;\r\n        title = date.title;\r\n    }\r\n\r\n    function tokenIdToTitle(uint256 tokenId) external view returns (string memory) {\r\n        require(_exists(tokenId), \"token not minted\");\r\n        Metadata memory date = id_to_date[tokenId];\r\n        return date.title;\r\n    }\r\n\r\n    function tokenDateToTitle(uint16 year, uint8 month, uint8 day) external view returns (string memory) {\r\n        require(_exists(id(year, month, day)), \"token not minted\");\r\n        Metadata memory date = id_to_date[id(year, month, day)];\r\n        return date.title;\r\n    }\r\n\r\n    function changeTitleOfTokenByDate(uint16 year, uint8 month, uint8 day, string memory title) external {\r\n        require(_exists(id(year, month, day)), \"token not minted\");\r\n        changeTitleOfTokenById(id(year, month, day), title);\r\n    }\r\n\r\n    function changeTitleOfTokenById(uint256 tokenId, string memory title) public {\r\n        require(_exists(tokenId), \"token not minted\");\r\n        require(ownerOf(tokenId) == msg.sender, \"only the owner of this date can change its title\");\r\n        id_to_date[tokenId].title = title;\r\n    }\r\n\r\n    function isLeapYear(uint16 year) public pure returns (bool) {\r\n        require(1 <= year, \"year must be bigger or equal 1\");\r\n        return (year % 4 == 0)\r\n            && (year % 100 == 0)\r\n            && (year % 400 == 0);\r\n    }\r\n\r\n    function numDaysInMonth(uint8 month, uint16 year) public pure returns (uint8) {\r\n        require(1 <= month && month <= 12, \"month must be between 1 and 12\");\r\n        require(1 <= year, \"year must be bigger or equal 1\");\r\n\r\n        if (month == 1 || month == 3 || month == 5 || month == 7 || month == 8 || month == 10 || month == 12) {\r\n            return 31;\r\n        }\r\n        else if (month == 2) {\r\n            return isLeapYear(year) ? 29 : 28;\r\n        }\r\n        else {\r\n            return 30;\r\n        }\r\n    }\r\n\r\n    function timestampToDate(uint timestamp) public pure returns (uint16 year, uint8 month, uint8 day) {\r\n        uint z = timestamp / 86400 + 719468;\r\n        uint era = (z >= 0 ? z : z - 146096) / 146097;\r\n        uint doe = z - era * 146097;\r\n        uint yoe = (doe - doe/1460 + doe/36524 - doe/146096) / 365;\r\n        uint doy = doe - (365*yoe + yoe/4 - yoe/100);\r\n        uint mp = (5*doy + 2)/153;\r\n\r\n        day = uint8(doy - (153*mp+2)/5 + 1);\r\n        month = mp < 10 ? uint8(mp + 3) : uint8(mp - 9);\r\n        year = uint16(yoe + era * 400 + (month <= 2 ? 1 : 0));\r\n    }\r\n\r\n    //+-Generates a Random Number:_\r\n    function pseudoRNG(uint16 year, uint8 month, uint8 day, string memory title) internal view returns (uint256) {\r\n        return uint256(keccak256(abi.encode(block.timestamp, block.difficulty, year, month, day, title)));\r\n    }\r\n}",
  "sourcePath": "D:/Personal_Programming_Projects/Implement-ERC-721-and-List-on-OpenSea/Implement-ERC-721-and-List-on-OpenSea-Truffle/contracts/Date.sol",
  "compiler": {
    "name": "solc",
    "version": "0.7.6+commit.7338295f.Emscripten.clang"
  },
  "schemaVersion": "3.4.1",
  "updatedAt": "2021-08-17T19:14:46.543Z",
  "devdoc": {
    "kind": "dev",
    "methods": {
      "approve(address,uint256)": {
        "details": "See {IERC721-approve}."
      },
      "balanceOf(address)": {
        "details": "See {IERC721-balanceOf}."
      },
      "baseURI()": {
        "details": "Returns the base URI set via {_setBaseURI}. This will be automatically added as a prefix in {tokenURI} to each token's URI, or to the token ID if no specific URI is set for that token ID."
      },
      "getApproved(uint256)": {
        "details": "See {IERC721-getApproved}."
      },
      "isApprovedForAll(address,address)": {
        "details": "See {IERC721-isApprovedForAll}."
      },
      "name()": {
        "details": "See {IERC721Metadata-name}."
      },
      "owner()": {
        "details": "Returns the address of the current owner."
      },
      "ownerOf(uint256)": {
        "details": "See {IERC721-ownerOf}."
      },
      "renounceOwnership()": {
        "details": "Leaves the contract without owner. It will not be possible to call `onlyOwner` functions anymore. Can only be called by the current owner. NOTE: Renouncing ownership will leave the contract without an owner, thereby removing any functionality that is only available to the owner."
      },
      "safeTransferFrom(address,address,uint256)": {
        "details": "See {IERC721-safeTransferFrom}."
      },
      "safeTransferFrom(address,address,uint256,bytes)": {
        "details": "See {IERC721-safeTransferFrom}."
      },
      "setApprovalForAll(address,bool)": {
        "details": "See {IERC721-setApprovalForAll}."
      },
      "supportsInterface(bytes4)": {
        "details": "See {IERC165-supportsInterface}. Time complexity O(1), guaranteed to always use less than 30 000 gas."
      },
      "symbol()": {
        "details": "See {IERC721Metadata-symbol}."
      },
      "tokenByIndex(uint256)": {
        "details": "See {IERC721Enumerable-tokenByIndex}."
      },
      "tokenOfOwnerByIndex(address,uint256)": {
        "details": "See {IERC721Enumerable-tokenOfOwnerByIndex}."
      },
      "tokenURI(uint256)": {
        "details": "See {IERC721Metadata-tokenURI}."
      },
      "totalSupply()": {
        "details": "See {IERC721Enumerable-totalSupply}."
      },
      "transferFrom(address,address,uint256)": {
        "details": "See {IERC721-transferFrom}."
      },
      "transferOwnership(address)": {
        "details": "Transfers ownership of the contract to a new account (`newOwner`). Can only be called by the current owner."
      }
    },
    "version": 1
  },
  "userdoc": {
    "kind": "user",
    "methods": {
      "createNFT(uint16,uint8,uint8,string)": {
        "notice": "+-The CreateNFT Function uses the Mint Function Taking all the Data that the Users give to it except fot the Color that is choosen randomly to create a new N.F.T.. +-It is \"External\" so Users can call it and \"Payable\" because users have to Pay a fee to create a new N.F.T.."
      }
    },
    "version": 1
  }
}